:020000040800F2
:10000000880D0020890100087D2200087522000863
:100010007922000851030008A9220008000000000E
:100020000000000000000000000000008522000821
:100030005503000800000000812200088922000802
:10004000A3010008A3010008A3010008A301000800
:10005000A3010008A3010008A3010008A3010008F0
:10006000A3010008A3010008A3010008A3010008E0
:10007000A3010008A3010008A3010008A3010008D0
:10008000A3010008A3010008A3010008A3010008C0
:10009000A3010008A3010008A301000861030008F0
:1000A000A3010008A3010008A30100089122000891
:1000B000A3010008A30100089D220008A301000875
:1000C000A3010008A3010008A3010008A301000880
:1000D000A3010008A3010008A3010008A301000870
:1000E00059030008A3010008A301000800F002F86A
:1000F00000F03AF80AA090E8000C82448344AAF188
:100100000107DA4501D100F02FF8AFF2090EBAE885
:100110000F0013F0010F18BFFB1A43F0010318473B
:10012000FC6B00001C6C0000103A24BF78C878C13A
:10013000FAD8520724BF30C830C144BF04680C60ED
:10014000704700000023002400250026103A28BF35
:1001500078C1FBD8520728BF30C148BF0B60704739
:100160001FB51FBD10B510BD00F036F81146FFF7E2
:10017000F7FF02F03BFF00F054F803B4FFF7F2FF83
:1001800003BC00F057F800000948804709480047C1
:10019000FEE7FEE7FEE7FEE7FEE7FEE7FEE7FEE737
:1001A000FEE7FEE704480549054A064B7047000094
:1001B0008D220008ED00000888070020880D00202F
:1001C00088090020880900207047704770470000A8
:1001D00000487047100000207546FFF7F9FFAE4653
:1001E00005006946534620F00700854618B020B543
:1001F000FFF7D8FFBDE820404FF000064FF00007A2
:100200004FF000084FF0000BAC46ACE8C009ACE87A
:10021000C009ACE8C009ACE8C00921F007018D466F
:10022000704710B50446AFF300802046BDE810408B
:10023000FFF7A3BF01491820ABBEFEE7260002006E
:1002400070470000B0B5044600688168C90709D04E
:10025000816821F00101816000F030FC216889682B
:10026000C90701D10020B0BD054602E08068C00783
:10027000F8D000F023FC411B20680329F6D38168E5
:10028000C907F3D0A06A40F01000A062E06A40F015
:100290000100E0620120B0BDB0B582B0044600208C
:1002A000019021688A68D2074FD1886840F0010028
:1002B000886040F20800C2F2000000684DF68361D9
:1002C000C4F21B31A0FB0101880C01900198A0B180
:1002D000019801380190019878B101980138019096
:1002E000019850B1019801380190019828B1019806
:1002F0000138019001980028EAD100F0DFFB216865
:100300008968C9071CD1054603E000BF8068C007A3
:100310001AD100F0D3FB411B20680329F6D3816872
:10032000C907F3D1A06A40F01000A062E06A40F073
:100330000100E062002084F82400012002B0B0BD7A
:10034000002002B0B0BD00BF002002B0B0BD000070
:10035000FEE70000704700004FF4005000F084BA40
:10036000202000F081BA000070B582B00446002061
:10037000019094F82400012804D10225284602B0F7
:1003800070BD00BF012084F824002046FFF75AFF0B
:100390002046FFF781FF0546002867D1A06A41F299
:1003A000021188430230A06240F20800C2F200004D
:1003B0000668022000F03CFCB6FBF0F04000019023
:1003C0000198A0B1019801380190019878B1019885
:1003D00001380190019850B10198013801900198BD
:1003E00028B101980138019001980028EAD12068CD
:1003F000816841F00801816000F060FB21688A6833
:1004000012070DD4886840F00400886000F056FBA5
:1004100021688968490713D401206FF0030121E0A6
:10042000064602E088680007ECD500F047FB801B19
:1004300021680B28F6D388680007F3D50EE000BFCB
:10044000064602E080684007E6D500F037FB811BD6
:1004500020680B29F6D381684907F3D501251020C0
:100460006FF01201A26A11400843A062002084F8D4
:100470002400284602B070BD10B581B00022009261
:1004800090F82420012A03D10221084601B010BDB2
:100490004B680122062B80F8242015D8026803EB54
:1004A0008303A3F1050E1F23D2F834C003FA0EF420
:1004B0000B682CEA040C03FA0EF444EA0C045463AF
:1004C000092B17D937E000BF02680C2B20D803EBAB
:1004D0008303A3F123041F23D2F830C003FA04FEE0
:1004E0000B682CEA0E0C03FA04F444EA0C041463BF
:1004F000092B20D8D2F810C003EB430307248968E6
:100500009C402CEA0404994021431161002136E00B
:1005100003EB8303A3F141041F23D2F82CC003FA99
:1005200004FE0B682CEA0E0C03FA04F444EA0C04F3
:10053000D462092BDED903EB4304D2F80CC0A4F13A
:100540001E0E0724896804FA0EF42CEA040401FA4A
:100550000EF1214323F00104102CD1600ED142F2A0
:100560000841C4F20101A1F10804A2420ED0816A3F
:1005700041F020018162012101E000BF0021002241
:1005800080F82420084601B010BD00BF0A6812029E
:1005900030D40A68102B42F400020A602CD140F2D9
:1005A0000801C2F2000109684DF68362C4F21B32F1
:1005B000A1FB0212910C01EB81014900009100990D
:1005C000E1B10099013900910099C9B1009901394F
:1005D00000910099B1B1009901390091009999B148
:1005E000009901390091009900294FF00001E8D1EC
:1005F000C5E700BF0021C2E70021C0E70021BEE738
:100600000021BCE70021BAE70021B8E7B0B5002817
:1006100000F0A8800446806A20B121688868C0077D
:100620000BD114E00020E06284F82400204600F0A2
:100630009BF821688868C00709D0886820F001000D
:10064000886000F03BFA21688A68D20726D1A06A48
:10065000C0063AD4A06A41F2021290430230A0626E
:10066000E069D4E9013240EA030C531EB3FA83F384
:100670005D091346B2F5807F18BF2B02207D257BD4
:1006800001284CEA450030D135B3A56A45F0200574
:10069000A562E56A45F00105E56226E0054602E04F
:1006A0008868C007D3D000F009FA401B21680328EE
:1006B000F6D38868C007F3D0A06A40F01000A062AB
:1006C000E06A40F00100E062A06AA06A40F0100019
:1006D000A0620120B0BD00BFD4F818C04EF60005DE
:1006E000CFF6FF7505EB4C352B434D68B2F5807F97
:1006F00025F4694543EA05034B608B684FF2FD75AD
:10070000CFF6E17503EA050343EA00038B6001D0ED
:10071000012A07D122690023CFF6F07303EB0252BE
:1007200001E000BF0022CB6A23F470031A43CA62BF
:10073000896840F6FE62CFF61F721140814207D1F0
:100740000020E062A16A012262F30101A162B0BD52
:10075000A06A40F0100020F00200A062E06A40F0C1
:100760000100E0620120B0BD80B586B0014640F6D0
:100770000000C4F20100096800F5E05291424FF018
:100780000001CDE9041101D006B080BD41F218018D
:10079000C4F202010A6842F400720A600A6802F4B4
:1007A00000720192019A0A6842F004020A60096824
:1007B00001F004010191019950210291032103915B
:1007C00002A900F05DF806B080BD0000B0B5044697
:1007D00000F074F9054640F20000C2F20000007813
:1007E000611C18BF044400BF00F068F9401BA04220
:1007F000FAD3B0BDB0B5202822D0B0F5005F18BF45
:10080000B0BD40F60004C4F2010404F5006500BF69
:1008100028464FF4005100F03DF90028F8D040F28E
:10082000AC65C2F20005284601F080F82046082198
:1008300000F036F92846BDE8B04001F025B800BF09
:1008400040F27000C2F200000021418040F23C7092
:10085000C2F2000001F018F840F2F460C2F20000A9
:10086000BDE8B04001F048B840F21441C4F20101C3
:100870000A68024214BF08607047FFF7BBBF000060
:100880002DE9F04F82B041F20042C4F201020E683D
:100890000423904208BF0323002E009300F0F6804B
:1008A00040F2004C4FF6FF7E0022C4F2010C0124FE
:1008B000C1F2100E4FF0000A4FF0000947E000BFF0
:1008C000012502F00C040F27A7402BEA070705FAC1
:1008D00004F43C4343F82640D1F804B040F20C4500
:1008E0005FEACB23DCF8083054BF23EA080343EA6D
:1008F0000803C4F20105CCF808302B685FEA8B24AA
:1009000054BF23EA080343EA08032B605FEA8B34F1
:10091000DCF8043054BF23EA080343EA08035FEA23
:10092000CB34CCF80430DCF800304FF0010454BF75
:1009300023EA080343EA0803CCF800300E680AF102
:10094000010A36FA0AF302F1040200F09F8004FA69
:100950000AF816EA080FF1D04B68734512DC122B27
:1009600056D8DFE803F0350B4549555555555555D3
:10097000555555555555554D510000BFD1F80C9062
:1009800046E000BF4FF6FF75C1F22105AB420FDC18
:100990000025C1F21105AB421AD00025C1F21205A3
:1009A000AB4215D00025C1F22105AB4210D02FE09B
:1009B0000025C1F22205AB420AD00025C1F2310563
:1009C000AB4205D00025C1F23205AB4220D100BFB9
:1009D0008B684BB1012B14BFC0F81480C0F8108095
:1009E0004FF0080914E000BF4FF0040910E000BF09
:1009F000CB6803F108090BE04FF0000908E000BFE5
:100A0000CB6803F1040903E0CB6803F10C0900BFD4
:100A100013460546BAF1080F24BF203B04352E6863
:100A20000F279F40BE4309FA03F333432B60CB7972
:100A3000DB067FF583AF41F21804C4F20204236899
:100A40004FEA9A0643F001032360236840F600044E
:100A500003F001030193019BACF57E7353F826B0BC
:100A6000C4F20104A0420FD040F60044C4F20104D5
:100A7000A0423FF425AF41F20004C4F20104009DFE
:100A8000A04208BF02251CE700251AE702B0BDE816
:100A9000F08F00008068084018BF012070470000F8
:100AA000C26802EA0103914341EA034101617047D0
:100AB000002A08BF090401617047000040F28470F9
:100AC000C2F200000068704740F2000040F28471FA
:100AD000C2F20000C2F2000100780A681044086007
:100AE0007047000080B542F20000C4F202000168C5
:100AF00041F010010160032000F08AF80F2000F09F
:100B000005F800F027F8002080BD000070B540F225
:100B10000006C2F2000640F208013278C2F200017B
:100B20004FF47A730968B3FBF2F20446B1FBF2F1B9
:100B3000084600F049FC0F2C4FF0010508D838B9E1
:100B40004FF0FF3021460022002500F035F8746098
:100B5000284670BD82B041F21800C4F2020001685C
:100B6000022241F001010160016801F001010191DF
:100B70000199416841F080514160406800F0805027
:100B8000009000980420C4F20100016862F31A6129
:100B9000016002B070470000002848BF704700F0B5
:100BA0001F01012202FA01F14EF200124009CEF2B9
:100BB000000242F82010704710B54EF60C5CCEF2E1
:100BC000000CDCF80030C3F3022E8EF00704042C76
:100BD00028BF0424BEF103034FF0FF3E0EFA04F4D5
:100BE00038BF0023A14399400EFA03F39A431143FF
:100BF00000F00F02043A624409010C3200F1604334
:100C0000B0F1FF3FC8BF03F56442117010BD000092
:100C10004EF60C51CEF200010A684FF6FF031A405F
:100C200060F30A2242F0806040F0FD700860704777
:100C300080B5012818D0022836D0102832D141F2D0
:100C40000401C4F202010A6851F8040CC00129D55C
:100C5000C2F383402DA3185CD2033DD440F60012AA
:100C6000C0F23D02504343E041F20400C4F20200EE
:100C7000C16940F202320A40B2F5817F04BF4FF4ED
:100C8000004080BD01F44071B1F5407F1CD0B1F54A
:100C9000007F07D1006A49F64041800701EAE07011
:100CA00080BD00BF002080BD00F0A0F941F204012A
:100CB000C4F2020109680222C1F3813102EB410151
:100CC000B0FBF1F080BD00BF50F8040C4FF224419E
:100CD000800301EAE07080BD0A6810A3C2F34042BD
:100CE0009A5C41F20023C0F27A03B3FBF2F2504364
:100CF0000968490248BF80BD4AF6AB214000CAF6E8
:100D0000AA21A0FB0101480880BD00BF0203040521
:100D1000060708090A0B0C0D0E0F10100102000047
:100D20002DE9F04182B00446007841F21C06C0076C
:100D3000C4F202064AD0306810F0805808D13068FA
:100D400040F080503060306800F080500190019891
:100D500047F20007C4F200073868C00512D43868AB
:100D600040F480703860FFF7A9FE05463868C0057A
:100D700008D4FFF7A3FE401B6428F7D9032002B074
:100D8000BDE8F081706810F4407012D0616801F421
:100D9000407188420DD0706840F24042C4F2422255
:100DA000012320F4407113600023C00713607160B9
:100DB0002AD17068616820F440700843B8F1000FD0
:100DC000706003D1306820F0805030602068810767
:100DD00007D556F8181CA26821F44041114346F883
:100DE000181CC00604D4002002B0BDE8F08100BF8A
:100DF00056F8180CE16820F48000084346F8180CF7
:100E0000002002B0BDE8F081FFF758FE054641F230
:100E1000883700BF70688007CBD4FFF74FFE401BB8
:100E2000B8424FF00300F5D9EBE700002DE9F0439D
:100E300081B0002800F0858042F20008C4F2020868
:100E40000446D8F800000D4600F0070088420CD296
:100E5000D8F8000020F007002843C8F80000D8F8B0
:100E6000000000F00700A8426BD1206841F204099D
:100E70008107C4F2020917D5410705D5D9F800103A
:100E800041F4E061C9F80010010705D5D9F8001058
:100E900041F46051C9F80010D9F80010A26821F09F
:100EA000F0011143C9F80010C00741D1D8F8000083
:100EB00000F00700A8420CD9D8F8000020F0070085
:100EC0002843C8F80000D8F8000000F00700A84246
:100ED00037D12068410707D5D9F80010E26821F41E
:100EE000E0611143C9F80010000708D5D9F80000E7
:100EF000216920F4605040EAC100C9F80000D9F827
:100F0000002002F00C00082841F20020C0F27A0014
:100F100050D143F66A43C2F38341C0F60003595CE3
:100F2000D2033BD440F60010C0F23D00484341E0FC
:100F3000606802280AD001282AD159F8041C8903C4
:100F400008D4012001B0BDE8F08300BF59F8041CAB
:100F50008901F6D5D9F8001021F003010843C9F83A
:100F60000000FFF7ABFD064641F28837D9F80000D4
:100F7000616800F00C00B0EB810F97D0FFF79EFD89
:100F8000801BB842F2D9032001B0BDE8F08300BF56
:100F900059F8041C8907D4D5DCE700BFD9F8002034
:100FA00043F26843C2F34042C0F600039A5C4843F0
:100FB000B0FBF2F0D9F8001043F25042C1F3031134
:100FC000C0F60002515C40F2080220FA01F140F242
:100FD0000400C2F200000068C2F200021160FFF7D4
:100FE00095FD002001B0BDE8F083000040F208004C
:100FF00041F20401C2F20000C4F202010068096873
:1010000043F26042C1F3C221C0F60002515CC84005
:10101000704700002DE9F04182B0002868D00446F6
:10102000007841F20006C007C4F2020625D07068BD
:1010300000F00C0004281BD0706800F00C00082899
:1010400002D17068C00313D46068002800F0688182
:10105000B0F5A02F00F07C81B0F5803F00F07C81DE
:10106000306820F480303060306820F4802076E1F1
:101070003068800301D56068D0B32078800718D528
:10108000706810F00C0F07D0706800F00C00082892
:101090006ED17068C0036BD43068800702D52069B8
:1010A000012825D13068616920F0F80040EAC100CC
:1010B0003060207800071FD42078400732D4E569DB
:1010C00095B1706800F00C00082840F08F80012D69
:1010D0000ED07068216A00F480328A4208D1616AB9
:1010E00000F47010884203D1002002B0BDE8F08106
:1010F000012002B0BDE8F081A069002862D0002084
:10110000C4F242200121C0F88014FFF7D7FC054645
:10111000706A800700F18C80FFF7D0FC401B02282A
:10112000F6D92AE1F06910F0805808D1F06940F052
:101130008050F061F06900F080500090009847F214
:101140000007C4F200073868C00529D4386840F4A5
:1011500080703860FFF7B2FC054600BF3868C005F4
:101160001ED4FFF7ABFC401B6428F7D905E100BF94
:101170002069002840F20000C4F2422000F0828082
:1011800001210160FFF79AFC054600BF3068800727
:101190003FF588AFFFF792FC401B0228F6D9ECE040
:1011A000E068002800F08080052800F09780012882
:1011B00000F09880306A20F001003062306A20F040
:1011C000040092E00020C4F242200021C0F8801404
:1011D000FFF774FC054600BF706A80077FF56CAFAF
:1011E000FFF76CFC401B0228F6D9C6E00027C4F2CA
:1011F000422700203866FFF761FC022D05460BD11F
:101200003068800140F1BE80FFF758FC401B022887
:101210004FF00300F4D968E7306880017FF564AFD0
:10122000FFF74CFC401B02284FF00300F4D95CE7A9
:1012300040F20800C2F20000006844F6D351C1F247
:101240006201A0FB0101480A019000BF00BF0198A4
:10125000411E002801913FF42FAF00BF0198411EAD
:10126000002801913FF428AF00BF0198411E0028DB
:1012700001913FF421AF00BF0198411E0028019168
:10128000E4D119E700210160FFF718FC054600BF13
:10129000306880077FF50DAFFFF710FC401B022878
:1012A0004FF00300F4D920E7306A20F001003062EB
:1012B000306A20F004003062FFF700FC054641F27E
:1012C000883700BF306A800720D5FFF7F7FB401B47
:1012D000B8424FF00300F5D907E700BF306A40F08D
:1012E00004003062306A40F001003062FFF7E6FB34
:1012F000054641F2883700BF306A800706D4FFF701
:10130000DDFB401BB842F7D937E000BFB8F1000F52
:101310007FF4D5AEF06920F08050F061CFE600BFD9
:10132000306820F480303060306820F480203060F5
:10133000FFF7C4FB054600BF306880037FF59DAE14
:10134000FFF7BCFB401B64284FF00300F4D9CCE648
:10135000306840F480203060306840F48030306085
:10136000FFF7ACFB054600BF306880033FF585AE54
:10137000FFF7A4FB401B6428F6D9032002B0BDE8A8
:10138000F08100BF206AB0F5803F05D17168A26886
:1013900021F40031114371607168626A21F47411A3
:1013A00010430843706001203866FFF787FB04464E
:1013B000306880013FF598AEFFF780FB001B0228E4
:1013C0004FF00300F4D990E6411E0020B0EB116FFE
:1013D0001CBF012070474EF21002CEF20002516095
:1013E0004EF62351CEF20001F0230B7007219060DE
:1013F000116070477047000070470000B0B590F86A
:101400003C20012A04BF0220B0BD01F108053CCDFB
:10141000D1E900CE23F47C5322F470521A432EF407
:10142000F0431A432CF4E0431A4324F4C0431A4314
:101430002A43C96922F48042036811435964002198
:1014400080F83C100846B0BD10B590F83C20012A49
:101450004FF0020233D080F83D200268D2F804E059
:10146000D2F808C00C682EF07003234340F2FF74DA
:10147000C4F20004A24253600ADCB2F1804F13D0E0
:1014800040F20043C4F200039A420DD011E000BFC5
:1014900042F60043C4F201039A4205D040F600032D
:1014A000C4F200039A4204D149682CF08003194326
:1014B00091600121002280F83D1080F83C20104608
:1014C00010BD000041B1082910D0042914BF00F15B
:1014D000450200F143020BE090F84220012A1CBFB4
:1014E00001207047022280F8422013E000F14402FC
:1014F0001278012A1CBF01207047082906D0042950
:1015000046D1022280F84320042203E0022280F820
:10151000442008220068C3681A43C260C26842F0CF
:101520008002C2600422036A02FA01F123EA010286
:101530000262026A11430162416C40F2FF72C4F21E
:10154000000241F400419042416409DCB0F1804F57
:1015500012D040F20041C4F2000188420CD010E0E9
:1015600042F60041C4F20101884205D040F6000174
:10157000C4F20001884204D1816801F00701062904
:1015800003D0016841F0010101600020704700BFF5
:10159000022180F8451001207047000080B549B154
:1015A00008290BD004291CBF012080BD6FF0040C5A
:1015B00006E000BF6FF0020C02E000BF6FF0080C05
:1015C0000268D36803EA0C03D3604FF0040CD2F82E
:1015D00020E00CFA01F32EEA03031362136A13628C
:1015E000D2F820C040F244431CEA030F06D0136A2D
:1015F00041F2111C13EA0C0F11D109E0D36823F05A
:101600008003D360136A41F2111C13EA0C0F06D158
:10161000D2F820E040F244431EEA030F10D0136AD0
:1016200013EA0C0F14D1D2F820C040F244431CEA54
:10163000030F0DD1136823F00103136008E000BF0E
:10164000536C23F400435364136A13EA0C0FEAD07B
:1016500008290BD004290FD000294FF0010114BF35
:1016600080F8451080F84210002080BD012180F8EC
:101670004410002080BD00BF012180F843100020ED
:1016800080BD0000002804BF0120704710B504464B
:1016900090F83D0028B9002084F83C00204600F076
:1016A00067F8022084F83D00206840F2FF7302686A
:1016B000C4F2000342F6004C9842C4F2010C15DC5F
:1016C000B0F1804F1AD040F20041C4F200018842CC
:1016D00014D0984218DCB0F1804F1DD040F2004188
:1016E000C4F20001884217D01AE000BF604505D05F
:1016F00040F60001C4F200018842EAD1A16822F05C
:1017000070020A439842E6DD604505D040F60001CC
:10171000C4F20001884203D1216922F440720A43D5
:10172000A36922F08001D4F804E0E268194360451F
:101730000160C262C0F828E002D16169CCF83010C3
:1017400001214161002084F8461084F83E1084F89D
:101750003F1084F8401084F8411084F8421084F857
:10176000431084F8441084F8451084F83D1010BDEF
:1017700080B584B0006840F20041C4F200018842A4
:1017800026D040F60001C4F20001884230D042F673
:101790000041C4F20101884227D141F21C00C4F289
:1017A000020050F8041C002241F4006140F8041CBF
:1017B00050F8040C002100F40060039003981B20F3
:1017C000FFF7FAF91B2004B0BDE88040FFF7E4B949
:1017D00041F21C00C4F20200016841F00201016004
:1017E000006800F002000290029804B080BD00BFC3
:1017F00041F21C00C4F202000168002241F0040121
:1018000001600068002100F00400019001981E2092
:10181000FFF7D2F91E2004B0BDE88040FFF7BCB945
:1018200090F83D1001291CBF01207047022180F86B
:101830003D10006840F2FF71C4F20001884209DCEB
:10184000B0F1804F12D040F20041C4F20001884252
:101850000CD012E042F60041C4F20101884205D0EA
:1018600040F60001C4F20001884206D1816801F00F
:101870000701062904BF00207047016841F00101FB
:10188000016000207047000090F83D1001291CBF46
:1018900001207047022180F83D10006840F2FF727D
:1018A000C168C4F20002904241F00101C16009DC4C
:1018B000B0F1804F12D040F20041C4F200018842E2
:1018C0000CD012E042F60041C4F20101884205D07A
:1018D00040F60001C4F20001884206D1816801F09F
:1018E0000701062904BF00207047016841F001018B
:1018F00001600020704700000146006841F21113AA
:10190000026A1A4204D00122002081F83D2070476B
:10191000026A40F244431A42F5D1026822F0010201
:1019200002600122002081F83D20704701460068D6
:1019300041F21113C26822F00102C260026A1A4227
:1019400004D00122002081F83D207047026A40F255
:1019500044431A42F5D1026822F0010202600122DA
:10196000002081F83D20704780B590F83C20012A86
:101970004FF0020200F0C28080F83D20D0F800C095
:101980004FF67772DCF8083023EA0202CCF8082020
:101990000B684F2B28DC1F2B44DD202B45D0302B30
:1019A00043D0402B40F0AC80D1F804E0C968DCF8AB
:1019B0002030DCF8202022F00102CCF82020DCF8D6
:1019C000182022F0F00242EA011123F00A0242EA52
:1019D0000E02CCF81810CCF82020DCF8081041F0EA
:1019E000470121F0300180E06F2B27DDB3F5005F68
:1019F00048D0B3F5805F7AD0702B40F08180D1E978
:101A000001E3C968DCF8082043EA0E0322F47F42B0
:101A100043EA01211143CCF80810DCF8081041F02A
:101A2000770162E00BB1102B6AD1DCF8081021F0CD
:101A30007001194341F0070157E000BF502B35D02A
:101A4000602B5DD1D1F804E0C968DCF82030DCF807
:101A5000202022F01002CCF82020DCF8182022F4FC
:101A6000704242EA013123F0A00242EA0E12CCF8A1
:101A70001810CCF82020DCF8081041F0670121F0A4
:101A8000100132E0D1E901E3C968DCF8082043EA3B
:101A90000E0322F47F4243EA01211143CCF80810DF
:101AA000DCF8081041F480411FE000BFD1F804E0E9
:101AB000C968DCF82030DCF8202022F00102CCF8E4
:101AC0002020DCF8182022F0F00242EA011123F075
:101AD0000A0242EA0E02CCF81810CCF82020DCF8FA
:101AE000081041F0570121F02001CCF80810002225
:101AF000012180F83D10002180F83C10104680BD87
:101B00000122F5E77047000010B501680446086936
:101B1000800744BFC8685FEA807039D4086940070D
:101B200044BFC8685FEA40703ED40869000744BFFC
:101B3000C8685FEA007045D40869C00644BFC86839
:101B40005FEAC0604AD40869C0071CBFC8685FEA82
:101B5000C07051D10869000644BFC8685FEA0060E0
:101B600052D40869400644BFC8685FEA406053D455
:101B70000869800646BFC8685FEA806010BD6FF0E4
:101B8000200220460A61BDE81040FFF735BC00BFC7
:101B90006FF002000861012020778869800743D038
:101BA0002046FFF7AFFF45E06FF004000861022018
:101BB0002077886910F4407F40D02046FFF7A2FFCD
:101BC00042E000BF6FF00800086104202077C86978
:101BD00080073DD02046FFF795FF3FE06FF01000F3
:101BE000086108202077C86910F4407F3AD0204669
:101BF000FFF788FF3CE000BF6FF00100086120465E
:101C000000F018FB2168A5E76FF08000086120460E
:101C1000FFF7F0FB2168A4E76FF040000861204661
:101C200000F026FB2168A3E7204600F06DF820466F
:101C300000F0E6F92168002020776FE7204600F0E9
:101C400063F8204600F0DCF92168002020776CE77B
:101C5000204600F059F8204600F0D2F92168002013
:101C6000207769E7204600F04FF8204600F0C8F9D9
:101C700021680020207766E770B586B040F6000442
:101C8000C4F20104006804F510520021904204914E
:101C900002D006B070BD00BF41F21800C4F20200CD
:101CA000016802AD41F0080101600168022601F0FF
:101CB000080101910199016841F004010160006887
:101CC000294600F00400019001980120029004F5DB
:101CD000806003960596FEF7D3FD4FF40070CDE9C2
:101CE0000206204629460596FEF7CAFD0420C4F2E6
:101CF0000100016841F0E06141F0400121F0800104
:101D0000016006B070BD0000704700002DE9F0438F
:101D100090F83C30012B04BF0220BDE8F0834FEA6D
:101D2000B202032A3CD8DFE802F003437FB900BFC8
:101D3000036842F600461D6A1A6AC4F2010622F0E0
:101D400001021A621A465C6852F818CFB3428E68D4
:101D5000D1F800E025F0020545EA06050CD1CE6871
:101D6000D1E9057824F4407425F00C0526F004062A
:101D70003C43354344EA08042CF0730747EA0E0756
:101D80005C609F614F6809695F631D629F6947F0EE
:101D900008079F619F6927F004079F61AEE000BFBD
:101DA0000121002280F83C200846BDE8F08300BFF6
:101DB000036842F600461D6A1A6AC4F2010622F060
:101DC00010021A621A46D3F804C052F8184FB342F0
:101DD0008E68D1F800E025F0200545EA06150FD100
:101DE000CE68D1E905986FF0400707EA06162CF493
:101DF000406725F0C00547EA8907354347EA880C64
:101E000024F4E64444EA0E27C3F804C09F614F68F7
:101E100009699F631D629F6947F400679F619F691D
:101E200027F480679F6168E0036842F600461D6AF8
:101E30001A6AC4F2010622F480721A621A46D3F8B2
:101E400004C052F81CEFB3428E680C6825F400758C
:101E500045EA06250FD1CE68D1E90598360240F251
:101E6000FF47BE432CF4405725F4406547EA091765
:101E7000354347EA081C2EF073072743C3F804C014
:101E8000DF614F680969DF631D62DF6947F008079A
:101E9000DF61DF6927F00407DF612FE0036842F6A6
:101EA0000047D3F820C01A6AC4F2010722F4805216
:101EB0001A621A465C6852F81C5FD1F800E08E681E
:101EC000BB4204D14F6924F4804444EA87142CF4C3
:101ED000005747EA063725F4E64646EA0E265C60D8
:101EE000DE614E6809691E641F62DF6947F400679E
:101EF000DF61DF6927F48067DF6109021368194336
:101F000011600021002280F83C200846BDE8F083E3
:101F1000002804BF0120704710B5044690F83D002A
:101F200028B9002084F83C00204600F067F8022021
:101F300084F83D00206840F2FF730268C4F2000399
:101F400042F6004C9842C4F2010C15DCB0F1804F0F
:101F50001AD040F20041C4F20001884214D09842E5
:101F600018DCB0F1804F1DD040F20041C4F20001F6
:101F7000884217D01AE000BF604505D040F6000146
:101F8000C4F200018842EAD1A16822F070020A433B
:101F90009842E6DD604505D040F60001C4F200013C
:101FA000884203D1216922F440720A43A36922F0D6
:101FB0008001D4F804E0E268194360450160C26220
:101FC000C0F828E002D16169CCF8301001214161EC
:101FD000002084F8461084F83E1084F83F1084F8FE
:101FE000401084F8411084F8421084F8431084F8BB
:101FF000441084F8451084F83D1010BD704700006F
:1020000010B5016842F60042C4F20102914223D1A8
:10201000007F022818BF10BD40F27000C2F200001D
:10202000418801318AB2572A418015D340F2AC640D
:102030000021C2F2000441802046042100F09AF8F9
:1020400020460421FFF7AAFA40F2F460C2F2000031
:10205000BDE81040FFF7E4BB10BD000041B1082906
:1020600016D0042914BF00F1410200F13F0211E033
:1020700090F83E20012A1CBF01207047022280F800
:102080003E204FEAB103032B4FF0010216D81FE0A8
:1020900000F140021278012A1CBF01207047022281
:1020A00008290DD0042914BF80F8412080F83F2072
:1020B0004FEAB103032B4FF0010209D910467047D4
:1020C00080F840204FEAB103032B4FF00102F5D80E
:1020D00043F67C4C0068C0F6000C5CF823C0C36873
:1020E00001F01F0143EA0C03C360036A8A4023EA3C
:1020F00002010162036A42F64441C4F201011A433B
:10210000A1F144039842026210D040F2FF71C4F280
:102110000001884214DCB0F1804F1DD040F2004134
:10212000C4F20001884217D01DE000BF0A6842F4E3
:1021300000420A6040F2FF71C4F200018842EADD09
:1021400042F60041C4F20101884205D040F6000188
:10215000C4F20001884206D1816801F00701062916
:1021600004BF002070470168002241F001010160B6
:102170001046704710B54FEAB102032A4FF0010E26
:1021800055D843F68C4C0368C0F6000C5CF822204E
:10219000DC6842F6444C2240DA6001F01F021C6AFF
:1021A0000EFA02F224EA0202C4F2010C1A621A6A5E
:1021B000ACF14404A3421A6210D15CF8242C41F221
:1021C000111422420AD11A6A40F24444224205D133
:1021D000DCF8002022F40042CCF800201A6A41F218
:1021E0001114224208D11A6A40F24444224203D117
:1021F0001A6822F001021A60082907D004290BD0BE
:1022000081B9012180F83E10002010BD012180F825
:102210004010002010BD00BF012180F83F100020B9
:1022200010BD00BF01214FF0000E80F84110704634
:1022300010BD000010B5006840F60001C4F20001B6
:10224000884218BF10BD40F23C70C2F20000FFF798
:102250006DFB40F2AC64C2F2000420460421FFF79B
:10226000FDFE20460421BDE81040FFF72BB9000019
:1022700070470000FEE70000FEE70000FEE70000F8
:102280007047000070470000FEF71EBC704700005A
:1022900040F2AC60C2F20000FFF736BC40F23C7086
:1022A000C2F20000FFF730BCFEE7000043F61C5C02
:1022B000827043F26A42C0F6000CC370C0F600029E
:1022C000FF294FF0FF030180C0F804C00CDDB1F519
:1022D000807F11D0B1F5805F12D0B1F5806F19D138
:1022E0000632042112E000BF10290BD0402911D181
:1022F0007E3240210AE000BF1E32102106E000BFFE
:10230000012103E002F5FF724FF480710023818107
:10231000C181826058B270472DE9F04381B0054613
:102320008078B5F800C06A68AB8901280C46084679
:10233000614605D100F0E6F8E87801283ED104E0D6
:1023400000F062FBE878012838D129880123EA8966
:102350004FEA510E03EB510C6FF00103A86803EB39
:10236000510804EB8E0101F10409520000210026FE
:102370000EE000BF04EB8603714454F821505F68FF
:102380005D6044F82170018802364645104415D836
:102390008E42EFD254F8217054F8263044F826705B
:1023A00044F8213001EB0C0354F8237059F82650FF
:1023B00049F8267044F82350DCE700BF01B0BDE8BF
:1023C000F0830000F0B581B0AAB11446061F8F1E3D
:1023D0006D4600BF36F9040FB6F90210404301FB09
:1023E00001002946400800F09FFDBDF80200013CB5
:1023F00027F8020FEED101B0F0BD00002DE9F04F3B
:1024000081B0B0F800C0B1F101090FD08F1E032FC9
:1024100009F0030614D24FF0000E002E4BD1A2F8A3
:1024200000C0C3F800E001B0BDE8F08F4FF0000E2F
:10243000A2F800C0C3F800E001B0BDE8F08F00BF13
:10244000009629F0030A4FF0000E0646002400BF54
:1024500000EB4405B5F902700FFA8CFBB5F9085092
:10246000BB45B8BFBC46B8BF04F1010EB6F9047055
:102470000FFA8CFBB6F90680BB45B8BFBC460FFA15
:102480008CF7B8BF04F1020E4745B8BFC4460FFA37
:102490008CF7B8BF04F1030E0434AF42BCBFAC46A6
:1024A000A646A24506F10806D2D13046009EA9EB09
:1024B0000409002EB3D0B0F902400FFA8CF5A1EB5D
:1024C0000901A542BCBFA4468E46012E0FFA8CFC22
:1024D000A5D0B0F90440A445BCBFA44601F1010E4B
:1024E000022E9CD0B0F906000FFA8CF48442BCBFD7
:1024F000844601F1020EA2F800C0C3F800E001B06A
:10250000BDE8F08F2DE9F04F96B009918F0803EBED
:10251000430189000190861C07EB47000F91D90009
:10252000800002F1020B0E9199001490B8000D91F9
:102530000C90F800D846BE463946039205930B909E
:102540000096CDF854B000BF0B9836F9022C3044F9
:10255000129030F9020CB6F9003036F93E4097106F
:1025600085104FEAA30A4FEAA40C05EBA202A7EBE1
:10257000A00002F30F050CEBA30200F30F0CAAEB73
:10258000A40002F30F0300F30F00149A11900C98AB
:10259000B71806EB000A37F9029C3AF9024C13917E
:1025A000B15E4FEAA90936F92E0009EBA40489109F
:1025B00004F30F0401EBA00029040FFA85F925B2FA
:1025C00044F34E0400F30F0004EB614126F8021CB3
:1025D000190404B240F34E0000EB61401BB230809E
:1025E000A9EB050000F30F00191B38F9023C01F3B9
:1025F0000F01B8F9004000B200FB03F509B201FB7E
:102600001455594300FB0410290C000C36F92E40D8
:1026100026F82E003AF9023C2AF8021CB15EA410FA
:1026200037F9020CA4EBA1019B1001F30F01A3EBFE
:10263000A0000FFA81FA119900F30F0010970FFA1A
:102640008CF90FB200B2159AA9EB0A05C41905F36B
:102650000F0504F30F0C32F9023CB2F900402DB221
:102660000FFA8CFC05FB03F10CFB03F30CFB1411BC
:1026700005FB04330AEB0905381A05F30F07129D11
:10268000090C1B0C25F8021C26F83E303BF9021CF5
:1026900000F30F00BBF900303FB207FB01F500B2B9
:1026A00000FB1355484307FB0300109B290C23F83C
:1026B000021C149B000CF0520F98139983440E983F
:1026C000013980440D9806F104060244F44615923F
:1026D0007FF43AAF099A142AC0F00081104605E051
:1026E000029850284FEA9000C0F0F88002900598B8
:1026F0004FEA9E01800005904FF0FF3000EB9E00F6
:10270000049001EB4100800000F10208019873463B
:102710004FEA8E068F008E46CC00002108900020E4
:102720000790CDE90C63CDE90A470CE005980799BD
:10273000014407910699049801318142089800F1FB
:1027400004000890CCD891420691EFD2039A0799E1
:10275000DDF8189002EB8100B0F9020032F9215047
:10276000129002EBC100B0F90200139532F931501A
:1027700001EB4101109032F92100119502EB810526
:102780000F90B5F9020008990E9000BFB1F90060F2
:10279000081931F93E40B1F90250B0F902301490F5
:1027A000A019F44601EB080200F30F0B5819EB1ABD
:1027B00001EB070E31F92C50159232F9022C00F37F
:1027C0000F0A301BBEF90260444631F908802A44E2
:1027D00002F30F0208EB060505F30F074FEA0B455E
:1027E00042F34E0606EB65456D080D804FEA0A453B
:1027F00047F34E0606EB65456D0800F30F0603F33D
:102800000F084BF34E0012044AF34E033F044D8071
:10281000A0EB6240A3EB6742119D109F00FB05F304
:10282000784302FB050002FB1733000C1A0CBEF9BB
:102830000270AEF80200159831F92C3021F82C20E6
:102840000A5F30F9020CBA1A181A02F30F0200F3E9
:102850000F0A46F34E0317044FEA0845A3EB6743FC
:102860004AF34E07139807EB654B129F0BFB00F5DD
:1028700003FB0755DDF850E043432D0C0BFB1733EA
:10288000AEF80250360442F34E020F9D02EB664250
:1028900048F34E074FEA0A401B0C0E9EA7EB604020
:1028A00021F83C3002FB05F300FB1633684302FBC2
:1028B0000600159EA0461A0C0D9B000C26F8022C53
:1028C000099A21F808000C980A9C0B9F9944E64647
:1028D00091450144FFF45AAF28E700BF4FEA9E003C
:1028E000A2EB0E01109181000F914FEA8E010E9123
:1028F000C10000EB400080000D90009EDDF83480A8
:102900004FF0000B73461591159836F9022C3118CB
:10291000B6F9007031F9023C305E129714911390B1
:1029200099180744D01A0F9A06EB080AB31833F91E
:10293000025C3AF902CCB45E36F90890654401F3C2
:102940000F01F44605F30F0E11904C4435460E046A
:102950004EF34E0007F30F0704F30F0400EB66403D
:1029600025F8020C380444F34E0606EB604028803C
:1029700041F34E004FEA0E41A0EB614047F34E0198
:102980002704A1EB674133F9027C23F8020CA85E0F
:10299000A95235F90810119A401A02F30F0300F3F7
:1029A0000F0043F34E010604149AA1EB66413AF975
:1029B000026C22F8021CDDE91221BF1B511A1B0414
:1029C00040F34E0000EB634001F30F0107F30F03E8
:1029D0002AF8020C080443F34E0202EB6040159AF9
:1029E000E344A85241F34E001904A0EB614025F8DE
:1029F000080010982E4683450E98E64605EB000623
:102A000082D916B0BDE8F08F2DE9F04F97B009914B
:102A10008F0803EB430189000190861C07EB4700F8
:102A20000F91D900800002F1020B0E9199001490D1
:102A3000B8000D910C90F800DE46BA463946039274
:102A400005930B900096CDF854B016970B9836F975
:102A5000022C304413915146B6F90030129030F9EF
:102A6000020C971036F931404FEAA30A8510A7EB04
:102A7000A00000F30F08AAEBA40000F30F00149FBE
:102A800011900C98F11906EB000A31F9029C4FEAFB
:102A9000A40C05EBA2023AF9024C169802F30F05BA
:102AA0000CEBA3028C461091F15F4FEAA90936F9AD
:102AB000200009EBA404891004F30F0401EBA0002B
:102AC00029040FFA85F925B244F34E0402F30F03EB
:102AD00000F30F0004EB614126F8021C190404B254
:102AE00040F34E0000EB61401BB23080A9EB0500C3
:102AF00000F30F00191B3EF9023C01F30F01BEF970
:102B0000004000B200FB03F509B201FB0455594334
:102B100000FB1410290C3AF9023C169A2AF8021C00
:102B20001699000C36F9224026F82100F15FA41016
:102B30003CF9020CA4EBA1019B1001F30F01A3EBE4
:102B4000A0000FFA81FA119900F30F000FFA88F92B
:102B50000FB200B2DDF854800AEB09053C1A05F308
:102B60000F0C04F30F0438F9025CB8F9003024B2FA
:102B70000FFA8CF101FB05F2654304FB032201FB14
:102B80001351DDF858C0129C120C090CA9EB0A0372
:102B900024F8022C26F83C10384403F30F033BF9C9
:102BA000021C00F30F00BBF900201BB200B203FBB4
:102BB00001F700FB0277484303FB1200109A390C1F
:102BC00022F8021C149A000CB0520F9813998344F7
:102BD0000E98E24686440D980139804406F10406B9
:102BE000CDF854807FF432AF099A142AC0F00281E4
:102BF000104605E0029850284FEA9000C0F0FA8095
:102C0000029005984FEA9A01800005904FF0FF303E
:102C100000EB9A00049001EB4100800000F10208F3
:102C2000019853464FEA8A068F008A46CC0000215D
:102C3000089000200790CDE90C63CDE90A470CE02D
:102C4000059807990144079106990498013181423A
:102C5000089800F104000890CCD891420691EFD278
:102C6000039A0799DDF8189002EB8100B0F9020091
:102C700032F92150129002EBC100B0F90200139515
:102C800032F9315001EB4101109032F921001195D8
:102C900002EB81050F90B5F9020008990E9000BF74
:102CA000B1F90060081931F93A40B1F90250B0F9B0
:102CB00002301590A01900F30F0B5819D44600F3F9
:102CC0000F0A301B149001EB0800EB1A01EB070E02
:102CD00031F92C5030F9022CBEF90260444631F92A
:102CE00008802A4402F30F0208EB060505F30F07DC
:102CF0004FEA0B4542F34E06169006EB65454FEA48
:102D00000A4647F34E0000EB66404008488014989E
:102D10006D080D8000F30F0603F30F084BF34E0010
:102D200012044AF34E033F04119DA0EB6240A3EB53
:102D30006742109F00FB05F302FB07336A4300FB69
:102D400017201A0C000CBEF90270AEF8020016989B
:102D500031F92C3021F82C200A5F30F9020CBA1A14
:102D6000181A02F30F0200F30F0A330442F34E075E
:102D700048F34E0507EB634B4FEA0A471398A5EB60
:102D80006747129B07FB00F50BFB1355DDF854E07A
:102D90005F432D0C46F34E0612040BFB0073AEF896
:102DA0000250A6EB62424FEA08474AF34E000E9EDD
:102DB0000F9D00EB67401B0C21F83C3000FB06F335
:102DC000684302FB053302FB1600169EA0461A0C50
:102DD0000D9B000C26F8022C099A21F808000C988B
:102DE0000A9C0B9F9944E24691450144FFF458AF79
:102DF00026E700BF4FEA9A00A2EB0A011191810079
:102E000010914FEA8A010F91C10000EB4000800051
:102E10000E90009EDDF838804FF0000B534616915F
:102E2000169836F9022C3118B6F9007031F9023CC7
:102E3000305E13971591149099180744D01A109A80
:102E400006EB0805B31833F902EC35F902CC129001
:102E5000B45E5046AA4636F908900CEB0E0501F315
:102E60000F0105F30F0E84464C4435460E044EF315
:102E70004E0007F30F0704F30F0400EB664025F83C
:102E8000020C380444F34E0606EB6040288041F300
:102E90004E004FEA0E41A0EB614047F34E0127047C
:102EA000A1EB674133F9027C23F8020CA85EA9521A
:102EB00035F90810129A401A02F30F0300F30F00BD
:102EC000190440F34E06159A06EB61413AF9026C7B
:102ED00022F8021CDDE91321BF1B511A43F34E03F4
:102EE0000004A3EB604001F30F0107F30F032AF87E
:102EF000020C41F34E001A04A0EB6240169AE34420
:102F0000A852080443F34E0101EB604025F8080085
:102F100011982E4683450F98E24605EB00067FF692
:102F20007FAF17B0BDE8F08F80B5012858DBB0FA4D
:102F300080F3A3F1010C5FEACC7218BFA3F1020C7D
:102F400000FA0CF043F69C438216C0F6000303EB34
:102F5000820252F8202C82FB02E31B0143EA1E731B
:102F600083FB003EDB0F43EA4E03C3F1405382FB79
:102F70000323DB0043EA527282FB02E31B0143EAB4
:102F80001E7383FB003EDB0F43EA4E03C3F1405345
:102F900082FB0323DB0043EA527282FB02E31B0144
:102FA00043EA1E7383FB003EDB0F43EA4E03C3F18B
:102FB000405382FB0323DB0043EA527282FB000290
:102FC000000F40EA02105FFA8CF20CEBD21252B200
:102FD000C2F3470240FA02F2002040B20A6080BD0C
:102FE000FF20002240B20A6080BD000098B0FDF7CB
:102FF00079FD00240120CDE90544CDE9034400908A
:1030000004904FF4A0104FF48031022509906846D7
:103010001794CDE91544CDE90114CDE90751FDF729
:10302000F9FF28B1EFF3108072B600BFFEE700BFD2
:103030000F20CDE90A054FF48060CDE90D040AA800
:1030400002210C94FDF7F2FE20B1EFF3108072B66E
:10305000FEE700BF4FF480400227169014A8149793
:10306000FDF75EFE20B1EFF3108072B6FEE700BF01
:10307000002641F218000396C4F20200016840F6EF
:10308000000841F0100101600168C4F2010801F07C
:1030900010010A910A990168002241F020010160A3
:1030A00001684FF0080901F020010A910A990168AE
:1030B00041F004010160016801F004010A910A99DC
:1030C000016841F0080101600068082100F0080073
:1030D0000A900A984046FDF7EBFC4FF4005000249C
:1030E0006D460090C1F2110408F500602946CDE953
:1030F0000146FDF7C5FBCDF800904FF001094046B1
:103100002946CDE901960397FDF7BAFB20208DE80B
:10311000510040462946FDF7B3FB1720002100224D
:10312000FDF74AFD1720FDF737FD2820002100227A
:10313000FDF742FD2820FDF72FFD40F27005C2F299
:10314000000508F5E051284640F80C1F4FF4002117
:1031500080F80C900675C161C0E90166C0F8109056
:10316000FDF754FA20B1EFF3108072B6FEE700BF0E
:103170000420029605F10C06CDE9000969463046A7
:10318000FDF77AF920B1EFF3108072B6FEE700BFC9
:10319000202040F200470A9040F2F460C4F2000799
:1031A0000021C2F2000045220391CDE901110B91EB
:1031B000C0E90071C0E90212016180218161FEF75E
:1031C00061FA28B1EFF3108072B600BFFEE700BFCE
:1031D0004FF48050009040F2F460C2F20000694663
:1031E000FEF7C2FB20B1EFF3108072B6FEE700BF1E
:1031F00040F2F460C2F200000AA9FEF725F928B1F6
:10320000EFF3108072B600BFFEE700BF00214FF45D
:103210000070CDE90F1040F2AC6008F51052C2F218
:1032200000004FF4717380241791CDE91511CDE999
:103230001211CDE90611CDE90411CDE90211CDE954
:103240000011C0E90021C0E90213C0E90411846142
:10325000FEF718FA20B1EFF3108072B6FEE700BF58
:103260004FF48050149040F2AC60C2F2000014A9F8
:10327000FEF77AFB20B1EFF3108072B6FEE700BFD5
:1032800040F2AC60C2F20000FEF742FE20B1EFF364
:10329000108072B6FEE700BF40F2AC60C2F20000E0
:1032A00012A9FEF7D1F818B1EFF3108072B6FEE75D
:1032B00060200A9000240220CDE90C0404200E9026
:1032C00040F2AC60C2F200000AA904220B94FEF79F
:1032D0001DFD18B1EFF3108072B6FEE732200390A7
:1032E0004FF4805004904FF40050059040F2AC60D1
:1032F000C2F200006946CDE9004402940794FEF74B
:103300007DF818B1EFF3108072B6FEE740F2AC60C2
:10331000C2F20000FEF7B0FC40F23C70002107F55D
:103320008062C2F20000FA2338270391CDE901112F
:10333000CDE90A11C0E90023C0E9021701618161EA
:10334000FEF7A0F920B1EFF3108072B6FEE700BFE0
:103350004FF48050009040F23C70C2F20000694689
:10336000FEF702FB20B1EFF3108072B6FEE700BF5C
:1033700040F23C70C2F200000AA9FEF765F818B1ED
:10338000EFF3108072B6FEE73046FCF7EDFF40F237
:103390003C70C2F20000FEF777FA40F2F469C2F224
:1033A00000094846FEF73CFA42F638404FF0000B61
:1033B000C4F201004FF40171A5F802B0016040F6BB
:1033C0002C00C4F200000B210160404608210122BC
:1033D000FDF76EFB4FF44870FDF7F8F94046082101
:1033E0000022FDF765FB6C4620464FF480710022F9
:1033F0000123FEF75BFF40F2AC0A40F2AC46C2F29A
:10340000000AC2F2000605F1080740460821FDF750
:1034100047FBA8880128F8D14846FEF76DFA2046F8
:103420005146FEF779FF504631464FF48072FEF761
:10343000C9FF30464FF480712A463B46A6F800B0DB
:10344000FEF7DCFF4846A5F804B0FEF7E9F9DCE733
:103450000000000000000000010203040607080944
:103460000000000001020304010200040002000643
:103470000001000500030007800080048002800630
:103480008001800580038007400040044002400620
:103490004001400540034007C000C004C002C00610
:1034A000C001C005C003C007200020042002200680
:1034B0002001200520032007A000A004A002A006F0
:1034C000A001A005A003A0076000600460026006E0
:1034D0006001600560036007E000E004E002E006D0
:1034E000E001E005E003E007100010041002100600
:1034F0001001100510031007900090049002900630
:10350000900190059003900750005004500250061F
:103510005001500550035007D000D004D002D0060F
:10352000D001D005D003D00730003004300230067F
:103530003001300530033007B000B004B002B006EF
:10354000B001B005B003B0077000700470027006DF
:103550007001700570037007F000F004F002F006CF
:10356000F001F005F003F00708000804080208065F
:1035700008010805080308078800880488028806EF
:1035800088018805880388074800480448024806DF
:103590004801480548034807C800C804C802C806CF
:1035A000C801C805C803C80728002804280228063F
:1035B0002801280528032807A800A804A802A806AF
:1035C000A801A805A803A80768006804680268069F
:1035D0006801680568036807E800E804E802E8068F
:1035E000E801E805E803E8071800180418021806BF
:1035F00018011805180318079800980498029806EF
:1036000098019805980398075800580458025806DE
:103610005801580558035807D800D804D802D806CE
:10362000D801D805D803D80738003804380238063E
:103630003801380538033807B800B804B802B806AE
:10364000B801B805B803B80778007804780278069E
:103650007801780578037807F800F804F802F8068E
:10366000F801F805F803F80704000404040204064E
:10367000040104050403040784008404840284060E
:1036800084018405840384074400440444024406FE
:103690004401440544034407C400C404C402C406EE
:1036A000C401C405C403C40724002404240224065E
:1036B0002401240524032407A400A404A402A406CE
:1036C000A401A405A403A4076400640464026406BE
:1036D0006401640564036407E400E404E402E406AE
:1036E000E401E405E403E4071400140414021406DE
:1036F000140114051403140794009404940294060E
:1037000094019405940394075400540454025406FD
:103710005401540554035407D400D404D402D406ED
:10372000D401D405D403D40734003404340234065D
:103730003401340534033407B400B404B402B406CD
:10374000B401B405B403B4077400740474027406BD
:103750007401740574037407F400F404F402F406AD
:10376000F401F405F403F4070C000C040C020C063D
:103770000C010C050C030C078C008C048C028C06CD
:103780008C018C058C038C074C004C044C024C06BD
:103790004C014C054C034C07CC00CC04CC02CC06AD
:1037A000CC01CC05CC03CC072C002C042C022C061D
:1037B0002C012C052C032C07AC00AC04AC02AC068D
:1037C000AC01AC05AC03AC076C006C046C026C067D
:1037D0006C016C056C036C07EC00EC04EC02EC066D
:1037E000EC01EC05EC03EC071C001C041C021C069D
:1037F0001C011C051C031C079C009C049C029C06CD
:103800009C019C059C039C075C005C045C025C06BC
:103810005C015C055C035C07DC00DC04DC02DC06AC
:10382000DC01DC05DC03DC073C003C043C023C061C
:103830003C013C053C033C07BC00BC04BC02BC068C
:10384000BC01BC05BC03BC077C007C047C027C067C
:103850007C017C057C037C07FC00FC04FC02FC066C
:10386000FC01FC05FC03FC07020002040202020644
:10387000020102050203020782008204820282061C
:10388000820182058203820742004204420242060C
:103890004201420542034207C200C204C202C206FC
:1038A000C201C205C203C20722002204220222066C
:1038B0002201220522032207A200A204A202A206DC
:1038C000A201A205A203A2076200620462026206CC
:1038D0006201620562036207E200E204E202E206BC
:1038E000E201E205E203E2071200120412021206EC
:1038F000120112051203120792009204920292061C
:10390000920192059203920752005204520252060B
:103910005201520552035207D200D204D202D206FB
:10392000D201D205D203D20732003204320232066B
:103930003201320532033207B200B204B202B206DB
:10394000B201B205B203B2077200720472027206CB
:103950007201720572037207F200F204F202F206BB
:10396000F201F205F203F2070A000A040A020A064B
:103970000A010A050A030A078A008A048A028A06DB
:103980008A018A058A038A074A004A044A024A06CB
:103990004A014A054A034A07CA00CA04CA02CA06BB
:1039A000CA01CA05CA03CA072A002A042A022A062B
:1039B0002A012A052A032A07AA00AA04AA02AA069B
:1039C000AA01AA05AA03AA076A006A046A026A068B
:1039D0006A016A056A036A07EA00EA04EA02EA067B
:1039E000EA01EA05EA03EA071A001A041A021A06AB
:1039F0001A011A051A031A079A009A049A029A06DB
:103A00009A019A059A039A075A005A045A025A06CA
:103A10005A015A055A035A07DA00DA04DA02DA06BA
:103A2000DA01DA05DA03DA073A003A043A023A062A
:103A30003A013A053A033A07BA00BA04BA02BA069A
:103A4000BA01BA05BA03BA077A007A047A027A068A
:103A50007A017A057A037A07FA00FA04FA02FA067A
:103A6000FA01FA05FA03FA0706000604060206063A
:103A700006010605060306078600860486028606FA
:103A800086018605860386074600460446024606EA
:103A90004601460546034607C600C604C602C606DA
:103AA000C601C605C603C60726002604260226064A
:103AB0002601260526032607A600A604A602A606BA
:103AC000A601A605A603A6076600660466026606AA
:103AD0006601660566036607E600E604E602E6069A
:103AE000E601E605E603E6071600160416021606CA
:103AF00016011605160316079600960496029606FA
:103B000096019605960396075600560456025606E9
:103B10005601560556035607D600D604D602D606D9
:103B2000D601D605D603D607360036043602360649
:103B30003601360536033607B600B604B602B606B9
:103B4000B601B605B603B6077600760476027606A9
:103B50007601760576037607F600F604F602F60699
:103B6000F601F605F603F6070E000E040E020E0629
:103B70000E010E050E030E078E008E048E028E06B9
:103B80008E018E058E038E074E004E044E024E06A9
:103B90004E014E054E034E07CE00CE04CE02CE0699
:103BA000CE01CE05CE03CE072E002E042E022E0609
:103BB0002E012E052E032E07AE00AE04AE02AE0679
:103BC000AE01AE05AE03AE076E006E046E026E0669
:103BD0006E016E056E036E07EE00EE04EE02EE0659
:103BE000EE01EE05EE03EE071E001E041E021E0689
:103BF0001E011E051E031E079E009E049E029E06B9
:103C00009E019E059E039E075E005E045E025E06A8
:103C10005E015E055E035E07DE00DE04DE02DE0698
:103C2000DE01DE05DE03DE073E003E043E023E0608
:103C30003E013E053E033E07BE00BE04BE02BE0678
:103C4000BE01BE05BE03BE077E007E047E027E0668
:103C50007E017E057E037E07FE00FE04FE02FE0658
:103C6000FE01FE05FE03FE07010002030405060730
:103C700008090A0B0C0D0E0F1010000002000000C6
:103C8000040000000800000010000000FDFFFFFF1E
:103C9000FBFFFFFFF7FFFFFFEFFFFFFF000000202C
:103CA000DE7D2B1EC6259F1C3C294A1B70BD201A99
:103CB00061551A19E791301847975E17669EA0164E
:103CC00067AAF31555555515E9ABC31462133D1496
:103CD0005136C0133DF64B13C660DF1246A779126A
:103CE00052181A12A01AC011F5286B11E5CE1A113C
:103CF00031A6CE10A3548610488A4110000000104F
:103D00004476C10F24B4850F6D864C0FEFBE150F9E
:103D1000DF33E10E55BFAE0ED23E7E0EFF7F0000B8
:103D2000FF7F3200FF7F6400FF7F9600FF7FC900A6
:103D3000FF7FFB00FE7F2D01FE7F5F01FD7F920173
:103D4000FC7FC401FC7FF601FB7F2802FA7F5B0247
:103D5000F97F8D02F87FBF02F77FF102F67F24031F
:103D6000F47F5603F37F8803F27FBA03F07FED03FD
:103D7000EE7F1F04ED7F5104EB7F8304E97FB604DF
:103D8000E77FE804E57F1A05E37F4C05E17F7F05C7
:103D9000DF7FB105DD7FE305DA7F1506D87F4706B3
:103DA000D67F7A06D37FAC06D07FDE06CE7F1007A3
:103DB000CB7F4207C87F7507C57FA707C27FD9079A
:103DC000BF7F0B08BC7F3D08B87F6F08B57FA20896
:103DD000B17FD408AE7F0609AA7F3809A77F6A0998
:103DE000A37F9C099F7FCE099B7F000A977F330AA0
:103DF000937F650A8F7F970A8B7FC90A877FFB0AAB
:103E0000827F2D0B7E7F5F0B797F910B757FC30BBC
:103E1000707FF50B6B7F270C677F590C627F8B0CD3
:103E20005D7FBD0C587FEF0C537F210D4D7F530DEF
:103E3000487F850D437FB70D3D7FE90D387F1B0E11
:103E4000327F4D0E2D7F7F0E277FB10E217FE30E37
:103E50001B7F150F157F470F0F7F790F097FAB0F62
:103E6000037FDD0FFD7E0E10F67E4010F07E721097
:103E7000E97EA410E37ED610DC7E0811D57E3911D0
:103E8000CF7E6B11C87E9D11C17ECF11BA7E01120B
:103E9000B37E3212AB7E6412A47E96129D7EC8124F
:103EA000957EF9128E7E2B13867E5D137F7E8E1398
:103EB000777EC0136F7EF213677E23145F7E5514E6
:103EC000577E87144F7EB814477EEA143F7E1B1539
:103ED000377E4D152E7E7F15267EB0151D7EE21590
:103EE000147E13160C7E4516037E7616FA7DA816F0
:103EF000F17DD916E87D0A17DF7D3C17D67D6D1759
:103F0000CD7D9F17C37DD017BA7D0218B07D3318C1
:103F1000A77D64189D7D9618947DC7188A7DF81832
:103F2000807D2A19767D5B196C7D8C19627DBD19A7
:103F3000587DEF194E7D201A437D511A397D821A22
:103F40002F7DB31A247DE41A197D161B0F7D471BA4
:103F5000047D781BF97CA91BEE7CDA1BE37C0B1C2F
:103F6000D87C3C1CCD7C6D1CC27C9E1CB77CCF1CBD
:103F7000AB7C001DA07C311D947C621D897C931D4F
:103F80007D7CC41D717CF51D667C251E5A7C561EE9
:103F90004E7C871E427CB81E367CE91E297C191F88
:103FA0001D7C4A1F117C7B1F057CAC1FF87BDC1F2E
:103FB000EB7B0D20DF7B3E20D27B6E20C57B9F20DC
:103FC000B97BD020AC7B00219F7B3121927B61218A
:103FD000847B9221777BC2216A7BF3215D7B232244
:103FE0004F7B5422427B8422347BB422267BE52201
:103FF000197B15230B7B4523FD7A7623EF7AA623C5
:10400000E17AD623D37A0724C57A3724B67A67248F
:10401000A87A97249A7AC7248B7AF7247D7A282560
:104020006E7A58255F7A8825507AB825427AE82535
:10403000337A1826247A4826157A7826057AA8260F
:10404000F679D826E7790727D8793727C8796727F7
:10405000B9799727A979C7279979F6278A792628E0
:104060007A7956286A7986285A79B5284A79E528CE
:104070003A7915292A794429197974290979A329C2
:10408000F978D329E878022AD878322AC778612AC1
:10409000B678912AA678C02A9578EF2A84781F2BC3
:1040A00073784E2B62787D2B5178AD2B4078DC2BCA
:1040B0002E780B2C1D783A2C0C78692CFA77982CDA
:1040C000E977C82CD777F72CC577262DB477552DEF
:1040D000A277842D9077B32D7E77E22D6C77112E09
:1040E0005A773F2E47776E2E35779D2E2377CC2E2D
:1040F0001077FB2EFE76292FEB76582FD976872F57
:10410000C676B52FB376E42FA07613308E76413085
:104110007B76703068769E305476CD304176FB30B9
:104120002E762A311B76583107768631F475B531F3
:10413000E075E331CC751132B9754032A5756E3238
:1041400091759C327D75CA326975F8325575263382
:10415000417554332D7582331975B0330475DE33D0
:10416000F0740C34DB743A34C7746834B274963427
:104170009E74C4348974F23474741F355F744D3581
:104180004A747B353574A8352074D6350B740436E3
:10419000F6733136E0735F36CB738C36B573BA364F
:1041A000A073E7368A731437757342375F736F37BE
:1041B00049739C373373CA371D73F7370773243835
:1041C000F1725138DB727E38C572AB38AF72D838B5
:1041D00098720639827232396B725F3955728C3936
:1041E0003E72B9392772E6391172133AFA71403AC0
:1041F000E3716C3ACC71993AB571C63A9E71F23A54
:1042000086711F3B6F714C3B5871783B4171A53BE8
:104210002971D13B1271FD3BFA702A3CE270563C89
:10422000CB70833CB370AF3C9B70DB3C8370073D2D
:104230006B70333D5370603D3B708C3D2370B83DD7
:104240000A70E43DF26F103EDA6F3C3EC16F683E8B
:10425000A96F933E906FBF3E776FEB3E5F6F173F46
:10426000466F433F2D6F6E3F146F9A3FFB6EC53F05
:10427000E26EF13FC96E1D40AF6E4840966E7340CE
:104280007D6E9F40636ECA404A6EF640306E21419B
:10429000176E4C41FD6D7741E36DA241CA6DCE4171
:1042A000B06DF941966D24427C6D4F42626D7A4249
:1042B000486DA5422D6DD042136DFA42F96C25432D
:1042C000DE6C5043C46C7B43A96CA5438F6CD04318
:1042D000746CFB43596C25443F6C5044246C7A4405
:1042E000096CA544EE6BCF44D36BFA44B86B2445FC
:1042F0009C6B4E45816B7845666BA3454A6BCD45FB
:104300002F6BF745136B2146F86A4B46DC6A7546FE
:10431000C16A9F46A56AC946896AF3466D6A1C4709
:10432000516A4647356A7047196A9A47FD69C3471B
:10433000E169ED47C4691648A86940488C69694835
:104340006F6993485369BC483669E64819690F4953
:10435000FD683849E0686149C3688A49A668B4497C
:104360008968DD496C68064A4F682F4A3268584AA6
:104370001568814AF767A94ADA67D24ABD67FB4ADE
:104380009F67244B82674C4B6467754B46679E4B17
:104390002967C64B0B67EF4BED66174CCF663F4C5A
:1043A000B166684C9366904C7566B84C5766E14CA4
:1043B0003966094D1A66314DFC65594DDD65814DF3
:1043C000BF65A94DA065D14D8265F94D6365214E4C
:1043D0004565484E2665704E0765984EE864BF4EA9
:1043E000C964E74EAA640F4F8B64364F6C645E4F0E
:1043F0004D64854F2D64AC4F0E64D44FEF63FB4F7B
:10440000CF632250B06349509063705071639750EE
:104410005163BF503163E55011630C51F262335167
:10442000D2625A51B26281519262A8517162CE51E8
:104430005162F55131621C5211624252F16169526E
:10444000D0618F52B061B5528F61DC526F610253FF
:104450004E6128532D614E530D617553EC609B5393
:10446000CB60C153AA60E75389600D546860335430
:104470004760585426607E540460A454E35FCA54D5
:10448000C25FEF54A05F15557F5F3A555E5F605580
:104490003C5F85551A5FAB55F95ED055D75EF55533
:1044A000B55E1A56935E4056715E6556505E8A56EA
:1044B0002D5EAF560B5ED456E95DF956C75D1D57AC
:1044C000A55D4257835D6757605D8C573E5DB05771
:1044D0001B5DD557F95CF957D65C1E58B45C425841
:1044E000915C67586E5C8B584B5CAF58295CD45814
:1044F000065CF858E35B1C59C05B40599D5B6459EE
:10450000795B8859565BAC59335BD059105BF359D2
:10451000EC5A175AC95A3B5AA55A5E5A825A825ABD
:104520005E5AA55A3B5AC95A175AEC5AF359105BAE
:10453000D059335BAC59565B8859795B64599D5BA4
:104540004059C05B1C59E35BF858065CD458295CA1
:10455000AF584B5C8B586E5C6758915C4258B45CAA
:104560001E58D65CF957F95CD5571B5DB0573E5DB8
:104570008C57605D6757835D4257A55D1D57C75DCA
:10458000F956E95DD4560B5EAF562D5E8A56505EE5
:104590006556715E4056935E1A56B55EF555D75E08
:1045A000D055F95EAB551A5F85553C5F60555E5F2F
:1045B0003A557F5F1555A05FEF54C25FCA54E35F61
:1045C000A45404607E542660585447603354686095
:1045D0000D548960E753AA60C153CB609B53EC60D4
:1045E00075530D614E532D6128534E6102536F6117
:1045F000DC528F61B552B0618F52D0616952F16166
:10460000425211621C523162F5515162CE517162B7
:10461000A85192628151B2625A51D2623351F26210
:104620000C511163E5503163BF5051639750716372
:10463000705090634950B0632250CF63FB4FEF63DB
:10464000D44F0E64AC4F2D64854F4D645E4F6C6447
:10465000364F8B640F4FAA64E74EC964BF4EE864BF
:10466000984E0765704E2665484E4565214E636538
:10467000F94D8265D14DA065A94DBF65814DDD65C0
:10468000594DFC65314D1A66094D3966E14C576646
:10469000B84C7566904C9366684CB1663F4CCF66DB
:1046A000174CED66EF4B0B67C64B29679E4B466771
:1046B000754B64674C4B8267244B9F67FB4ABD6711
:1046C000D24ADA67A94AF767814A1568584A3268B8
:1046D0002F4A4F68064A6C68DD498968B449A66864
:1046E0008A49C3686149E0683849FD680F4919691A
:1046F000E6483669BC48536993486F6969488C69D4
:104700004048A8691648C469ED47E169C347FD6997
:104710009A47196A7047356A4647516A1C476D6A5D
:10472000F346896AC946A56A9F46C16A7546DC6A2E
:104730004B46F86A2146136BF7452F6BCD454A6B04
:10474000A345666B7845816B4E459C6B2445B86BE1
:10475000FA44D36BCF44EE6BA544096C7A44246CC5
:1047600050443F6C2544596CFB43746CD0438F6CB0
:10477000A543A96C7B43C46C5043DE6C2543F96CA4
:10478000FA42136DD0422D6DA542486D7A42626D9A
:104790004F427C6D2442966DF941B06DCE41CA6D99
:1047A000A241E36D7741FD6D4C41176E2141306EA2
:1047B000F6404A6ECA40636E9F407D6E7340966EAF
:1047C0004840AF6E1D40C96EF13FE26EC53FFB6EC3
:1047D0009A3F146F6E3F2D6F433F466F173F5F6FD9
:1047E000EB3E776FBF3E906F933EA96F683EC16FFF
:1047F0003C3EDA6F103EF26FE43D0A70B83D237024
:104800008C3D3B70603D5370333D6B70073D837052
:10481000DB3C9B70AF3CB370833CCB70563CE2708A
:104820002A3CFA70FD3B1271D13B2971A53B4171C5
:10483000783B58714C3B6F711F3B8671F23A9E7109
:10484000C63AB571993ACC716C3AE371403AFA7153
:10485000133A1172E6392772B9393E728C395572A2
:104860005F396B723239827206399872D838AF72FA
:10487000AB38C5727E38DB725138F1722438077359
:10488000F7371D73CA3733739C3749736F375F73BC
:104890004237757314378A73E736A073BA36B57327
:1048A0008C36CB735F36E0733136F67304360B7497
:1048B000D6352074A83535747B354A744D355F7410
:1048C0001F357474F2348974C4349E749634B2748F
:1048D0006834C7743A34DB740C34F074DE33047516
:1048E000B033197582332D755433417526335575A0
:1048F000F8326975CA327D759C3291756E32A57534
:104900004032B9751132CC75E331E075B531F475CB
:104910008631077658311B762A312E76FB30417668
:10492000CD3054769E30687670307B7641308E760E
:104930001330A076E42FB376B52FC676872FD976BD
:10494000582FEB76292FFE76FB2E1077CC2E23776F
:104950009D2E35776E2E47773F2E5A77112E6C7726
:10496000E22D7E77B32D9077842DA277552DB477E5
:10497000262DC577F72CD777C82CE977982CFA77AE
:10498000692C0C783A2C1D780B2C2E78DC2B407877
:10499000AD2B51787D2B62784E2B73781F2B84784A
:1049A000EF2A9578C02AA678912AB678612AC77826
:1049B000322AD878022AE878D329F978A329097904
:1049C0007429197944292A7915293A79E5284A79E7
:1049D000B5285A7986286A7956287A7926288A79D4
:1049E000F6279979C727A9799727B9796727C879C9
:1049F0003727D8790727E779D826F679A826057AC0
:104A00007826157A4826247A1826337AE825427AB9
:104A1000B825507A88255F7A58256E7A28257D7AC0
:104A2000F7248B7AC7249A7A9724A87A6724B67ACF
:104A30003724C57A0724D37AD623E17AA623EF7ADE
:104A40007623FD7A45230B7B1523197BE522267BF4
:104A5000B422347B8422427B54224F7B23225D7B11
:104A6000F3216A7BC221777B9221847B6121927B37
:104A700031219F7B0021AC7BD020B97B9F20C57B5F
:104A80006E20D27B3E20DF7B0D20EB7BDC1FF87B92
:104A9000AC1F057C7B1F117C4A1F1D7C191F297CC4
:104AA000E91E367CB81E427C871E4E7C561E5A7C00
:104AB000251E667CF51D717CC41D7D7C931D897C43
:104AC000621D947C311DA07C001DAB7CCF1CB77C8B
:104AD0009E1CC27C6D1CCD7C3C1CD87C0B1CE37CDA
:104AE000DA1BEE7CA91BF97C781B047D471B0F7D2C
:104AF000161B197DE41A247DB31A2F7D821A397D85
:104B0000511A437D201A4E7DEF19587DBD19627DE3
:104B10008C196C7D5B19767D2A19807DF8188A7D49
:104B2000C718947D96189D7D6418A77D3318B07DB5
:104B30000218BA7DD017C37D9F17CD7D6D17D67D26
:104B40003C17DF7D0A17E87DD916F17DA816FA7D9E
:104B50007616037E45160C7E1316147EE2151D7E16
:104B6000B015267E7F152E7E4D15377E1B153F7E98
:104B7000EA14477EB8144F7E8714577E55145F7E23
:104B80002314677EF2136F7EC013777E8E137F7EB1
:104B90005D13867E2B138E7EF912957EC8129D7E44
:104BA0009612A47E6412AB7E3212B37E0112BA7EDC
:104BB000CF11C17E9D11C87E6B11CF7E3911D57E7C
:104BC0000811DC7ED610E37EA410E97E7210F07E20
:104BD0004010F67E0E10FD7EDD0F037FAB0F097FC8
:104BE000790F0F7F470F157F150F1B7FE30E217F76
:104BF000B10E277F7F0E2D7F4D0E327F1B0E387F2B
:104C0000E90D3D7FB70D437F850D487F530D4D7FE7
:104C1000210D537FEF0C587FBD0C5D7F8B0C627FA5
:104C2000590C677F270C6B7FF50B707FC30B757F6B
:104C3000910B797F5F0B7E7F2D0B827FFB0A877F35
:104C4000C90A8B7F970A8F7F650A937F330A977F04
:104C5000000A9B7FCE099F7F9C09A37F6A09A77FDB
:104C60003809AA7F0609AE7FD408B17FA208B57FB4
:104C70006F08B87F3D08BC7F0B08BF7FD907C27F94
:104C8000A707C57F7507C87F4207CB7F1007CE7F78
:104C9000DE06D07FAC06D37F7A06D67F4706D87F64
:104CA0001506DA7FE305DD7FB105DF7F7F05E17F54
:104CB0004C05E37F1A05E57FE804E77FB604E97F4A
:104CC0008304EB7F5104ED7F1F04EE7FED03F07F43
:104CD000BA03F27F8803F37F5603F47F2403F67F41
:104CE000F102F77FBF02F87F8D02F97F5B02FA7F46
:104CF0002802FB7FF601FC7FC401FC7F9201FD7F4F
:104D00005F01FE7F2D01FE7FFB00FF7FC900FF7F5B
:104D10009600FF7F6400FF7F3200FF7F0000FF7F6F
:104D2000CDFFFF7F9BFFFF7F69FFFF7F36FFFF7F88
:104D300004FFFF7FD2FEFE7FA0FEFE7F6DFEFD7FA3
:104D40003BFEFC7F09FEFC7FD7FDFB7FA4FDFA7FC5
:104D500072FDF97F40FDF87F0EFDF77FDBFCF67FEB
:104D6000A9FCF47F77FCF37F45FCF27F12FCF07F17
:104D7000E0FBEE7FAEFBED7F7CFBEB7F49FBE97F49
:104D800017FBE77FE5FAE57FB3FAE37F80FAE17F7F
:104D90004EFADF7F1CFADD7FEAF9DA7FB8F9D87FB7
:104DA00085F9D67F53F9D37F21F9D07FEFF8CE7FF5
:104DB000BDF8CB7F8AF8C87F58F8C57F26F8C27F38
:104DC000F4F7BF7FC2F7BC7F90F7B87F5DF7B57F80
:104DD0002BF7B17FF9F6AE7FC7F6AA7F95F6A77FCE
:104DE00063F6A37F31F69F7FFFF59B7FCCF5977F1E
:104DF0009AF5937F68F58F7F36F58B7F04F5877F73
:104E0000D2F4827FA0F47E7F6EF4797F3CF4757FCC
:104E10000AF4707FD8F36B7FA6F3677F74F3627F29
:104E200042F35D7F10F3587FDEF2537FACF24D7F8B
:104E30007AF2487F48F2437F16F23D7FE4F1387FF3
:104E4000B2F1327F80F12D7F4EF1277F1CF1217F5F
:104E5000EAF01B7FB8F0157F86F00F7F54F0097FD2
:104E600022F0037FF1EFFD7EBFEFF67E8DEFF07E47
:104E70005BEFE97E29EFE37EF7EEDC7EC6EED57EC2
:104E800094EECF7E62EEC87E30EEC17EFEEDBA7E3D
:104E9000CDEDB37E9BEDAB7E69EDA47E37ED9D7EBF
:104EA00006ED957ED4EC8E7EA2EC867E71EC7F7E44
:104EB0003FEC777E0DEC6F7EDCEB677EAAEB5F7ECE
:104EC00078EB577E47EB4F7E15EB477EE4EA3F7E5B
:104ED000B2EA377E80EA2E7E4FEA267E1DEA1D7EEC
:104EE000ECE9147EBAE90C7E89E9037E57E9FA7D84
:104EF00026E9F17DF5E8E87DC3E8DF7D92E8D67D1F
:104F000060E8CD7D2FE8C37DFDE7BA7DCCE7B07DBD
:104F10009BE7A77D69E79D7D38E7947D07E78A7D5C
:104F2000D5E6807DA4E6767D73E66C7D42E6627D03
:104F300010E6587DDFE54E7DAEE5437D7DE5397DAC
:104F40004CE52F7D1BE5247DE9E4197DB8E40F7D58
:104F500087E4047D56E4F97C25E4EE7CF4E3E37C0D
:104F6000C3E3D87C92E3CD7C61E3C27C30E3B77CC1
:104F7000FFE2AB7CCEE2A07C9DE2947C6CE2897C7B
:104F80003BE27D7C0AE2717CDAE1667CA9E15A7C35
:104F900078E14E7C47E1427C16E1367CE6E0297CF4
:104FA000B5E01D7C84E0117C53E0057C23E0F87BB8
:104FB000F2DFEB7BC1DFDF7B91DFD27B60DFC57B84
:104FC0002FDFB97BFFDEAC7BCEDE9F7B9EDE927B4C
:104FD0006DDE847B3DDE777B0CDE6A7BDCDD5D7B1A
:104FE000ABDD4F7B7BDD427B4BDD347B1ADD267BEB
:104FF000EADC197BBADC0B7B89DCFD7A59DCEF7AC1
:1050000029DCE17AF8DBD37AC8DBC57A98DBB67A9B
:1050100068DBA87A38DB9A7A08DB8B7AD7DA7D7A74
:10502000A7DA6E7A77DA5F7A47DA507A17DA427A55
:10503000E7D9337AB7D9247A87D9157A57D9057A37
:1050400027D9F679F8D8E779C8D8D87998D8C8791F
:1050500068D8B97938D8A97909D89979D9D78A7906
:10506000A9D77A7979D76A794AD75A791AD74A79F2
:10507000EAD63A79BBD62A798BD619795CD60979E2
:105080002CD6F978FDD5E878CDD5D8789ED5C778D7
:105090006ED5B6783FD5A67810D59578E0D48478CB
:1050A000B1D4737882D4627852D4517823D44078C2
:1050B000F4D32E78C5D31D7896D30C7867D3FA77BE
:1050C00037D3E97708D3D777D9D2C577AAD2B477BF
:1050D0007BD2A2774CD290771DD27E77EED16C77BF
:1050E000C0D15A7791D1477762D1357733D12377C1
:1050F00004D11077D6D0FE76A7D0EB7678D0D976CB
:105100004AD0C6761BD0B376ECCFA076BECF8E76D3
:105110008FCF7B7661CF687632CF547604CF4176DD
:10512000D5CE2E76A7CE1B7679CE07764ACEF475ED
:105130001CCEE075EECDCC75BFCDB97591CDA57502
:1051400063CD917535CD7D7507CD6975D9CC557514
:10515000ABCC41757DCC2D754FCC197521CC047528
:10516000F3CBF074C5CBDB7497CBC77469CBB27447
:105170003BCB9E740DCB8974E0CA7474B2CA5F7461
:1051800084CA4A7457CA357429CA2074FBC90B747F
:10519000CEC9F673A0C9E07373C9CB7345C9B573A3
:1051A00018C9A073EBC88A73BDC8757390C85F73C4
:1051B00063C8497335C8337308C81D73DBC70773E9
:1051C000AEC7F17281C7DB7254C7C57227C7AF7211
:1051D000F9C69872CDC68272A0C66B7273C655723C
:1051E00046C63E7219C62772ECC51172BFC5FA7168
:1051F00093C5E37166C5CC7139C5B5710DC59E7196
:10520000E0C48671B3C46F7187C458715AC44171C8
:105210002EC4297102C41271D5C3FA70A9C3E270F9
:105220007CC3CB7050C3B37024C39B70F8C283702F
:10523000CCC26B709FC2537073C23B7047C2237065
:105240001BC20A70EFC1F26FC3C1DA6F97C1C16FA1
:105250006CC1A96F40C1906F14C1776FE8C05F6FD8
:10526000BCC0466F91C02D6F65C0146F3AC0FB6E15
:105270000EC0E26EE2BFC96EB7BFAF6E8CBF966E56
:1052800060BF7D6E35BF636E09BF4A6EDEBE306E95
:10529000B3BE176E88BEFD6D5DBEE36D31BECA6DD7
:1052A00006BEB06DDBBD966DB0BD7C6D85BD626D1B
:1052B0005ABD486D2FBD2D6D05BD136DDABCF96C5F
:1052C000AFBCDE6C84BCC46C5ABCA96C2FBC8F6CA8
:1052D00004BC746CDABB596CAFBB3F6C85BB246CEF
:1052E0005ABB096C30BBEE6B05BBD36BDBBAB86B3A
:1052F000B1BA9C6B87BA816B5CBA666B32BA4A6B87
:1053000008BA2F6BDEB9136BB4B9F86A8AB9DC6AD4
:1053100060B9C16A36B9A56A0CB9896AE3B86D6A21
:10532000B9B8516A8FB8356A65B8196A3CB8FD6971
:1053300012B8E169E9B7C469BFB7A86996B78C69C3
:105340006CB76F6943B7536919B73669F0B6196915
:10535000C7B6FD689EB6E06875B6C3684BB6A6686A
:1053600022B68968F9B56C68D0B54F68A7B53268C0
:105370007EB5156856B5F7672DB5DA6704B5BD6714
:10538000DBB49F67B3B482678AB4646761B446676D
:1053900039B4296710B40B67E8B3ED66C0B3CF66C4
:1053A00097B3B1666FB3936647B375661EB357661E
:1053B000F6B23966CEB21A66A6B2FC657EB2DD657B
:1053C00056B2BF652EB2A06506B28265DEB16365D6
:1053D000B7B145658FB1266567B1076540B1E8642F
:1053E00018B1C964F0B0AA64C9B08B64A1B06C6490
:1053F0007AB04D6453B02D642BB00E6404B0EF63EB
:10540000DDAFCF63B6AFB0638FAF906368AF71634A
:1054100040AF51631AAF3163F3AE1163CCAEF262A9
:10542000A5AED2627EAEB26257AE926231AE71620A
:105430000AAE5162E3AD3162BDAD116296ADF1616C
:1054400070ADD0614AADB06123AD8F61FDAC6F61CD
:10545000D7AC4E61B1AC2D618AAC0D6164ACEC602F
:105460003EACCB6018ACAA60F2AB8960CCAB686094
:10547000A7AB476081AB26605BAB046035ABE35FF5
:1054800010ABC25FEAAAA05FC5AA7F5F9FAA5E5F5A
:105490007AAA3C5F54AA1A5F2FAAF95E0AAAD75EBD
:1054A000E5A9B55EBFA9935E9AA9715E75A9505E24
:1054B00050A92D5E2BA90B5E06A9E95DE2A8C75D88
:1054C000BDA8A55D98A8835D73A8605D4FA83E5DEB
:1054D0002AA81B5D06A8F95CE1A7D65CBDA7B45C51
:1054E00098A7915C74A76E5C50A74B5C2BA7295CB6
:1054F00007A7065CE3A6E35BBFA6C05B9BA69D5B1C
:1055000077A6795B53A6565B2FA6335B0CA6105B80
:10551000E8A5EC5AC4A5C95AA1A5A55A7DA5825AE9
:105520005AA55E5A36A53B5A13A5175AEFA4F3594C
:10553000CCA4D059A9A4AC5986A4885962A46459B2
:105540003FA440591CA41C59F9A3F858D6A3D45819
:10555000B4A3AF5891A38B586EA367584BA342587E
:1055600029A31E5806A3F957E4A2D557C1A2B057E4
:105570009FA28C577CA267575AA2425738A21D5748
:1055800016A2F956F4A1D456D2A1AF56AFA18A56AD
:105590008EA165566CA140564AA11A5628A1F55510
:1055A00006A1D055E5A0AB55C3A08555A1A0605577
:1055B00080A03A555FA015553DA0EF541CA0CA54D9
:1055C000FB9FA454D99F7E54B89F5854979F33543F
:1055D000769F0D54559FE753349FC153139F9B53A0
:1055E000F29E7553D29E4E53B19E2853909E025305
:1055F000709EDC524F9EB5522F9E8F520E9E695266
:10560000EE9D4252CE9D1C52AE9DF5518E9DCE51C7
:105610006D9DA8514D9D81512D9D5A510D9D335128
:10562000EE9C0C51CE9CE550AE9CBF508E9C97508A
:105630006F9C70504F9C4950309C2250109CFB4FE7
:10564000F19BD44FD29BAC4FB29B854F939B5E4F47
:10565000749B364F559B0F4F369BE74E179BBF4EA3
:10566000F89A984ED99A704EBA9A484E9C9A214E02
:105670007D9AF94D5F9AD14D409AA94D229A814D5C
:10568000039A594DE599314DC699094DA899E14CB8
:105690008A99B84C6C99904C4E99684C30993F4C13
:1056A0001299174CF498EF4BD698C64BB9989E4B6D
:1056B0009B98754B7D984C4B6098244B4298FB4AC5
:1056C0002598D24A0898A94AEA97814ACD97584A1C
:1056D000B0972F4A9397064A7697DD495997B44970
:1056E0003C978A491F97614902973849E6960F49C6
:1056F000C996E648AC96BC4890969348739669481C
:10570000579640483B9616481E96ED470296C3476B
:10571000E6959A47CA957047AE95464792951C47BD
:105720007695F3465A95C9463E959F46239575460C
:1057300007954B46EC942146D094F745B594CD455A
:105740009994A3457E94784563944E4547942445A7
:105750002C94FA441194CF44F693A544DB937A44F5
:10576000C0935044A69325448B93FB437093D0433E
:105770005693A5433B937B43219350430693254384
:10578000EC92FA42D292D042B792A5429D927A42CE
:1057900083924F42699224424F92F9413592CE4111
:1057A0001C92A24102927741E8914C41CF91214154
:1057B000B591F6409C91CA4082919F406991734097
:1057C0005091484036911D401D91F13F0491C53FD5
:1057D000EB909A3FD2906E3FB990433FA090173F15
:1057E0008890EB3E6F90BF3E5690933E3E90683E51
:1057F00025903C3E0D90103EF58FE43DDC8FB83D8A
:10580000C48F8C3DAC8F603D948F333D7C8F073DC2
:10581000648FDB3C4C8FAF3C348F833C1D8F563CF8
:10582000058F2A3CED8EFD3BD68ED13BBE8EA53B2F
:10583000A78E783B908E4C3B798E1F3B618EF23A5F
:105840004A8EC63A338E993A1C8E6C3A058E403A8F
:10585000EE8D133AD88DE639C18DB939AA8D8C39C0
:10586000948D5F397D8D3239678D0639508DD838EA
:105870003A8DAB38248D7E380E8D5138F88C243813
:10588000E28CF737CC8CCA37B68C9C37A08C6F373C
:105890008A8C4237758C14375F8CE7364A8CBA365F
:1058A000348C8C361F8C5F36098C3136F48B043681
:1058B000DF8BD635CA8BA835B58B7B35A08B4D35A4
:1058C0008B8B1F35768BF234618BC4344D8B9634C1
:1058D000388B6834248B3A340F8B0C34FB8ADE33DC
:1058E000E68AB033D28A8233BE8A5433AA8A2633F8
:1058F000968AF832828ACA326E8A9C325A8A6E320C
:10590000468A4032338A11321F8AE3310B8AB5311D
:10591000F8898631E4895831D1892A31BE89FB3032
:10592000AB89CD3097899E30848970307189413040
:105930005F8913304C89E42F3989B52F2689872F49
:105940001489582F0189292FEF88FB2EDC88CC2E53
:10595000CA889D2EB8886E2EA5883F2E9388112E5A
:105960008188E22D6F88B32D5D88842D4B88552D5D
:105970003A88262D2888F72C1688C82C0588982C5C
:10598000F387692CE2873A2CD1870B2CBF87DC2B5D
:10599000AE87AD2B9D877D2B8C874E2B7B871F2B56
:1059A0006A87EF2A5987C02A4987912A3887612A4E
:1059B0002787322A1787022A0687D329F686A32942
:1059C000E6867429D5864429C5861529B586E52835
:1059D000A586B52895868628858656287586262824
:1059E0006686F6275686C72746869727378667270F
:1059F00027863727188607270986D826FA85A826F6
:105A0000EA857826DB854826CC851826BD85E825DD
:105A1000AF85B825A08588259185582582852825BC
:105A20007485F7246585C72457859724498567249D
:105A30003A8537242C8507241E85D6231085A62376
:105A400002857623F4844523E6841523D984E52250
:105A5000CB84B422BD848422B0845422A284232225
:105A60009584F3218884C2217B8492216D846121F5
:105A700060843121538400214684D0203A849F20C1
:105A80002D846E2020843E2014840D200784DC1F8A
:105A9000FA83AC1FEE837B1FE2834A1FD683191F54
:105AA000C983E91EBD83B81EB183871EA583561E18
:105AB0009983251E8E83F51D8283C41D7683931DD5
:105AC0006B83621D5F83311D5483001D4883CF1C8F
:105AD0003D839E1C32836D1C27833C1C1C830B1C46
